:020000040800F2
:10000000603F0020990100083D280008A72500084E
:1000100039280008FB020008A54D00080000000078
:10002000000000000000000000000000B12A0008ED
:100030006504000800000000AF2A0008B32A000889
:10004000B3010008B3010008B3010008B3010008C0
:10005000B3010008B3010008B3010008B3010008B0
:10006000B3010008B3010008B3010008B3010008A0
:10007000B3010008B3010008B3010008B301000890
:10008000B3010008B3010008B3010008B301000880
:1000900001030008B3010008B3010008B301000820
:1000A000B3010008B3010008B3010008B301000860
:1000B000B3010008B3010008B3010008B301000850
:1000C000B3010008B3010008B3010008B301000840
:1000D000B3010008B3010008B3010008B301000830
:1000E000B3010008B3010008B3010008B301000820
:1000F000B3010008B3010008B3010008B301000810
:10010000B3010008B3010008B3010008B3010008FF
:10011000B3010008B3010008B3010008B3010008EF
:10012000B3010008B3010008B3010008B3010008DF
:10013000B3010008B3010008B3010008B3010008CF
:10014000B3010008B3010008B3010008412800080A
:10015000B3010008B3010008B3010008B3010008AF
:10016000B3010008B3010008B3010008B30100089F
:10017000B3010008B3010008B3010008000000004B
:10018000B3010008DFF80CD000F07AF8004800470F
:10019000814E0008603F002006488047064800471F
:1001A000FEE7FEE7FEE7FEE7FEE7FEE7FEE7FEE727
:1001B000FEE7FEE7232B0008850100082DE9F05F2C
:1001C0000546002092469B468846064681464024C6
:1001D0001BE0284641464746224600F041F8534678
:1001E0005A46C01A914110D311461846224600F0D3
:1001F00028F82D1A67EB01084F46224601200021FE
:1002000000F01FF817EB00094E41201EA4F1010475
:10021000DFDC484631462A464346BDE8F09FD2B26D
:1002200001E000F8012B491EFBD270470022F6E7DF
:1002300010B513460A4604461946FFF7F0FF20465C
:1002400010BD202A04DB203A00FA02F1002070479A
:100250009140C2F1200320FA03F319439040704704
:10026000202A04DB203A21FA02F00021704721FA0B
:1002700002F3D040C2F12002914008431946704772
:10028000064C074D06E0E06840F0010394E80700E3
:1002900098471034AC42F6D3FFF778FF305000088F
:1002A0005050000870B58C1810F8015B15F007036A
:1002B00001D110F8013B2A1106D110F8012B03E0FF
:1002C00010F8016B01F8016B5B1EF9D12B0705D407
:1002D0000023521E0DD401F8013BFAE710F8013B50
:1002E000CB1A921C03E013F8015B01F8015B521E6C
:1002F000F9D5A142D8D3002070BD00BFFEE70000B1
:1003000010B5024800F0E3FA10BD0000940100208F
:1003100000B58BB0002006900790012008900020C7
:100320000190029003900490059001200990002014
:100330000A9001A9034800F06DF908B100F093F8A4
:100340000BB000BD9401002010B50346042B15D05E
:1003500007DC7BB1012B0ED0022B0DD0032B3CD13F
:100360000BE0202B0BD0212B1CD0222B33D0232BA6
:1003700033D131E032E031E030E02FE02EE0C878D8
:1003800000068C7840EA04404C7840EA04200C785F
:100390002043144C20600879207148796071887975
:1003A000A0711BE00F48007808700E480088000A12
:1003B00048700C480068000C88700A480068000EFD
:1003C000C8700848007908710648407948710548A6
:1003D0008079887102E001E000E000BF00BF0020EA
:1003E00010BD0000600000200020704710B5002202
:1003F0000449054802F0D5FC0449034802F0CAFC50
:10040000002010BD800E0020BC01002080060020CE
:1004100070B504460D462146034802F0BBFC024875
:1004200002F094FC002070BDBC0100202DE9F041D9
:1004300004460D4600260A48D0F8B872D7F81402D0
:1004400010B10120BDE8F0812A462146044802F09F
:10045000A8FC034802F029FD06463046F2E70000FA
:10046000BC010020704772B600BFFEE770B50A48B5
:100470000468001D0568001D0668344454B1082254
:100480000649204602F091F804220449103128461A
:1004900002F08BF870BD0000107AFF1F46000020AC
:1004A00010B5024692F82030012B01D0022B06D164
:1004B00010684069084314686061002010BD506AEC
:1004C00040F4802050620120F8E7F0B504460D4664
:1004D0001E4694F8207020688368A86800B900E080
:1004E00000BF012F01D0022F7DD103F0806030B911
:1004F00003F0006018B903F0805000287ED0C3F3E9
:100500000161012088403060A86860B9B5F800C07A
:10051000E86840EA4C5C206800F5C07000EB011010
:10052000C0F800C00FE0D5E901C040EACC00D5F822
:100530000CC040EA0C00D4F800C00CF5C07C0CEBF9
:10054000011CCCF80000D5F810C0206800F5C07080
:1005500000EB0110C0F804C0287D01280ED12068EE
:1005600000F5C07000EB0110406840F4807C20680A
:1005700000F5C07000EB0110C0F804C0D07900068F
:1005800092F806C040EA0C4092F805C040EA0C2000
:1005900092F804C040EA0C00D4F800C00CF5C07C0E
:1005A0000CEB011CCCF80C00D078000692F802C0CD
:1005B00040EA0C4092F801C040EA0C2092F800C0DA
:1005C00040EA0C00D4F800C00CF5C07C0CEB011C18
:1005D000CCF80800206800F5C07000EB011000683E
:1005E00040F0010C01E00FE008E0206800F5C07069
:1005F00000EB0110C0F800C00020F0BD606A40F4BC
:10060000001060620120F8E7606A40F480206062B8
:100610000120F2E7F0B504460A46216894F820501C
:10062000012D01D0022D7ED1424901F500710868EB
:1006300040F001000860086820F47C5008600868F9
:10064000566A40EA06200860107D00F01F0601206F
:1006500000FA06F3C8699843C861A1F50071D06932
:10066000C8B9D1F80C029843C1F80C02908880B246
:10067000968940EA064601F51070576940F83760E0
:10068000108880B2168940EA064601F51070576955
:1006900000EBC7004660D069012819D1D1F80C02DF
:1006A0001843C1F80C02908880B2168840EA0646CA
:1006B00001F51070576940F83760908980B216894B
:1006C00040EA064601F51070576900EBC700466026
:1006D000906928B9D1F804029843C1F8040204E0F3
:1006E000D1F804021843C1F80402106928B9D1F8FE
:1006F00014029843C1F8140204E0D1F8140218431C
:10070000C1F81402106A012804D1D1F81C02184360
:10071000C1F81C02D1F8000220F00100C1F800026B
:100720000020F0BDFFE7606A40F480206062012095
:10073000F7E7000000640040704770B5044694F885
:100740002050012D01D0022D7DD151B92068C06803
:1007500000F0030080B9606A40F40010606201207C
:1007600070BD2068006900F0030028B9606A40F499
:10077000001060620120F3E7206800F5D87000EBFC
:100780000110006800F004009060906840B9206893
:1007900000F5D87000EB01100068400D106007E014
:1007A000206800F5D87000EB01100068C0085060A8
:1007B000206800F5D87000EB0110006800F002001E
:1007C000D060206800F5D87000EB0110406800F0A0
:1007D0000F00082802D30820106108E0206800F507
:1007E000D87000EB0110406800F00F001061206825
:1007F00000F5D87000EB0110406800F47F40000A5B
:100800009061206800F5D87000EB01104068000C82
:100810005061206800F5D87000EB011080681870F6
:10082000206800F5D87000EB0110806800F47F406C
:10083000000A5870206800F5D87000EB011080683D
:1008400000F47F0000E03CE0000C9870206800F5A8
:10085000D87000EB01108068000ED870206800F599
:10086000D87000EB0110C0681871206800F5D870CE
:1008700000EB0110C06800F47F40000A5871206846
:1008800000F5D87000EB0110C06800F47F00000C88
:100890009871206800F5D87000EB0110C068000E58
:1008A000D87131B92068C06840F020002668F06037
:1008B00005E02068006940F02000266830610020D3
:1008C0004EE7606A40F480206062012048E72DE92D
:1008D000F05F04460025206846692068D0F804903F
:1008E000206887682068D0F80CA02068D0F810B085
:1008F0002068D0F8188006F00100002855D007F0D5
:100900000100C0B101202168886007F0020018B121
:10091000204600F04CFA0EE007F0040010B145F458
:10092000006508E007F0080010B145F4805502E0CA
:10093000204600F03BFA07F48070C8B14FF4807095
:100940002168886007F4007018B1204600F031FA81
:100950000EE007F4806010B145F4005508E007F49C
:10096000006010B145F4804502E0204600F020FA16
:1009700007F48030C8B14FF480302168886007F4F4
:10098000003018B1204600F016FA0EE007F480207F
:1009900010B145F4004508E007F4002010B145F41B
:1009A000803502E0204600F005FA06F0080038B174
:1009B0000AF0100020B145F4007510202168C860CD
:1009C00006F0040040B10AF0080028B108202168B0
:1009D000C860204600F0A8F906F0020038B120688F
:1009E000C06800F0030010B1204600F09FF906F047
:1009F000400038B10BF0100020B145F480651020A4
:100A00002168086106F0200040B10BF0080028B111
:100A1000082021680861204600F096F906F01000D1
:100A200038B12068006900F0030010B1204600F0E2
:100A30008CF906F4003040B109F0100028B1102004
:100A400021684860204600F081F906F4803040B10A
:100A500009F0080028B1082021684860204600F00D
:100A6000ABF906F4004088B309F0040078B306F44B
:100A7000807020B108F0010008B145F0010506F4CE
:100A8000007020B108F0020008B145F0020506F43C
:100A9000806020B108F0040008B145F0040506F4B8
:100AA0000060A0B108F0700088B108F07000402824
:100AB00017D006DC10280BD020280CD0302819D1F4
:100AC0000CE0502810D0602814D110E01DE019E08F
:100AD00045F008050FE045F010050CE045F0200555
:100AE00009E045F0400506E045F0800503E045F4E7
:100AF000807500E000BF00BF2068806920F07000B2
:100B0000216888610420216848602DB1606A28430B
:100B100060622046FFF710FEBDE8F09F70B5044606
:100B20000CB9012070BD94F8200010B9204600F0E7
:100B3000AFF82068006840F001002168086000F00C
:100B400055FA05460DE000F051FA401B0A2808D975
:100B5000606A40F400306062052084F820000120C3
:100B6000E0E72068406800F001000028EBD0206832
:100B7000006820F002002168086000F037FA05469E
:100B80000DE000F033FA401B0A2808D9606A40F4EF
:100B900000306062052084F820000120C2E7206850
:100BA000406800F002000028EBD1207E012806D129
:100BB0002068006840F080002168086005E0206837
:100BC000006820F0800021680860607E012806D15E
:100BD0002068006840F040002168086005E0206857
:100BE000006820F0400021680860A07E012806D13E
:100BF0002068006840F020002168086005E0206857
:100C0000006820F0200021680860E07E012806D1FD
:100C10002068006820F010002168086005E0206866
:100C2000006840F0100021680860207F012806D18C
:100C30002068006840F008002168086005E020682E
:100C4000006820F0080021680860607F012806D154
:100C50002068006840F004002168086005E0206812
:100C6000006820F0040021680860D4E9020108430C
:100C700021690843616908436168491E0843216886
:100C8000C86100206062012084F82000002049E74C
:100C900010B586B00446142101A8FFF7C7FA1F4912
:100CA0002068884237D100BF002000901C480068AF
:100CB00040F000701A4908600846006800F00070B3
:100CC000009000BF00BF00BF002000901448103803
:100CD000006840F0080012491039086008460068B2
:100CE00000F00800009000BF00BF03200190022028
:100CF000029000200390032004900920059001A990
:100D0000084800F06FF800221146142000F0F8F9AE
:100D1000142000F0E5F906B010BD000000640040AA
:100D200040380240000C02407047000030B589B0E6
:100D3000054600246B4602AA00210248FFF7FDFC8D
:100D400009B030BD9401002070477047704770B5FE
:100D5000044694F82000012822D1022084F82000C3
:100D60002068006820F001002168086000F03EF96A
:100D700005460DE000F03AF9401B0A2808D9606AE0
:100D800040F400306062052084F82000012070BD2E
:100D90002068406800F001000028EBD16062F6E7AF
:100DA000606A40F4002060620120F0E770477047FD
:100DB00070477047704770477047000070B5044631
:100DC00000F014F906462546681C10B10448007866
:100DD000054400BF00F00AF9801BA842FAD370BD99
:100DE0000800002078B502460B460021DAE0012613
:100DF0008E401D6805EA0604002C74D01D7905F0AC
:100E00000305012D04D01D7905F00305022D13D132
:100E100090684E000325B540A8434E00DD68B540FC
:100E200028439060506801258D40A8431D79C5F383
:100E300000158D40284350601D7905F00305032DF2
:100E400009D0D0684E000325B540A8434E009D68E8
:100E5000B5402843D0601D7905F00305022D13D15C
:100E6000CE0802F1200555F826004D07EE0E0F259D
:100E7000B540A8434E07F60E1D69B5402843CE087D
:100E800002F1200545F8260010684E000325B54004
:100E9000A8431D7905F003054E00B54028431060B6
:100EA0005D6805F44035002D7BD000BF002500951E
:100EB0003F4D2D6845F480453D4E356035462D68E3
:100EC00005F48045009500BF00BF3A4D8E0855F8E7
:100ED00026008D072E0F0F25B540A843364DAA4298
:100EE00002D1002529E05CE0344DAA4201D1012560
:100EF00023E0334DAA4201D102251EE0314DAA4222
:100F000001D1032519E0304DAA4201D1042514E096
:100F10002E4DAA4201D105250FE02D4DAA4201D147
:100F200006250AE02B4DAA4201D1072505E02A4DEE
:100F3000AA4201D1082500E009258E07360FB540E9
:100F400028431C4D8E0845F82600244D2868A043F0
:100F50005D6805F4801505B12043204D28602D1DE6
:100F60002868A0435D6805F4001505B120431B4DBA
:100F70002D1D2860194D2D1F2868A0435D6805F4BC
:100F8000003505B12043154D2D1F28602D1F286801
:100F9000A0435D6805F4803505B120430F4D083D41
:100FA0002860491C1D68CD40002D7FF420AF78BD1E
:100FB000443802400838014000000240000402406A
:100FC00000080240000C02400010024000140240E1
:100FD00000180240001C024000200240083C014072
:100FE0000AB1816101E00B04836170470148006828
:100FF000704700000000002003480068034909789A
:1010000008440149086070470000002008000020E3
:1010100010B50D48006840F400700B4908600846A0
:10102000006840F4806008600846006840F4807002
:101030000860032000F0A2F80F2000F007F800F08D
:101040002BF8002010BD0000003C024070B50446A3
:101050000E4800784FF47A71B1FBF0F00C49096842
:10106000B1FBF0F5284601F084FA08B1012070BD0B
:10107000102C07D200222146501E00F041F80548EE
:10108000046001E00120F2E70020F0E70800002002
:101090000C0000200400002008B500BF00200090D4
:1010A0000E48006840F480400C490860084600681B
:1010B00000F48040009000BF00BF00BF00200090FF
:1010C000081F006840F08050091F0860084600684B
:1010D00000F08050009000BF00BF08BD44380240BF
:1010E00001460846002809DB00F01F0301229A4050
:1010F00043099B0003F1E023C3F8002100BF7047C0
:101100002DE9F05F80460D461646002703F04CFEA1
:10111000074639462A46334601F00700C0F1070A60
:10112000BAF1040F02D94FF0040A01E0C0F1070A36
:10113000D14600F1040ABAF1070F02D24FF0000ABB
:1011400001E0A0F1030AD4464FF0010A0AFA09FAB5
:10115000AAF1010A0AEA020A0AFA0CFA4FF0010B94
:101160000BFA0CFBABF1010B0BEA030B4AEA0B0485
:101170002146404603F020FEBDE8F09F00BF00F08E
:101180000702064B19684FF6FF031940044B0B4347
:1011900043EA0221014B196000BF70470CED00E0EB
:1011A0000000FA0502461068416200207047F0B561
:1011B000034615461868446A21B944EA05401E688A
:1011C000B06219E01868806A04EB1044002208E05D
:1011D000186800F5827050F8220004EB1044501C8F
:1011E000C2B2481E9042F3D844EA0547186800F599
:1011F00082704E1E40F826700020F0BD10B50446E7
:10120000D4F8D80402F033FA10BD70B504460D4688
:1012100005EBC50304F1140101EB8301CA682946FB
:10122000D4F8D80402F050F970BD70B504460D46EC
:1012300005EBC50304F5157101EB8301CA68294666
:10124000D4F8D80402F0C0F970BD10B50446D4F843
:10125000D80402F00FFA10BD2DE9F04104460D4606
:1012600005F08000802808D105F00F0000EBC001D8
:1012700004F1140000EB810607E005F00F0000EB1D
:10128000C00104F5157000EB81063146206803F0BB
:101290004BFB07463846BDE8F08170B504460E4664
:1012A00006F0800080280AD106F00F0000EBC00194
:1012B00004F1140000EB81050120687009E006F0DC
:1012C0000F0000EBC00104F5157000EB8105002054
:1012D000687006F00F00287000BF94F8940401288D
:1012E00001D1022070BD012084F8940400BF29467A
:1012F000206802F0ADFE00BF002084F8940400BF17
:1013000000BFEFE770B504460E4606F00F002179E6
:10131000884201D9012070BD06F0800080280AD1E2
:1013200006F00F0000EBC00104F1140000EB810592
:101330000120687009E006F00F0000EBC00104F521
:10134000157000EB8105002068700020A87006F081
:101350000F00287000BF94F89404012801D10220E6
:10136000D9E7012084F8940400BF2946206803F0DF
:101370006DF800BF002084F8940400BF00BFCAE7E6
:10138000024601F00F0000EBC00302F5157000EB00
:101390008300406970472DE9F04705460E469046A8
:1013A0001F464FF0000906F0800080280AD106F0A1
:1013B0000F0000EBC00105F1140000EB81040120D7
:1013C000607009E006F00F0000EBC00105F5157034
:1013D00000EB81040020607006F00F002070C4F85C
:1013E00008802771607808B120786083022F01D1CE
:1013F0000020607100BF95F89404012802D10220FA
:10140000BDE8F087012085F8940400BF21462868D4
:1014100002F03AFD00BF002085F8940400BF484662
:10142000EEE72DE9F04105460E461746984606F0D0
:101430000F0000EBC00105F5157000EB8104E760BB
:10144000C4F8108000206061607006F00F0020700A
:10145000A879012800D1E761AA792146286803F01C
:1014600089F80020BDE8F08170B504460D4605F00E
:101470000F002179884201D9012070BD05F080005C
:1014800080280AD105F00F0000EBC00104F1140020
:1014900000EB81060120707007E005EBC50104F543
:1014A000157000EB8106002070700120B07005F00F
:1014B0000F00307000BF94F89404012801D102207D
:1014C000DBE7012084F8940400BF3146206803F074
:1014D00004F805F00F0028B9A17904F29C422068B5
:1014E00002F07CFF00BF002084F8940400BF00BF1E
:1014F000C3E72DE9F04105460E461746984606F02B
:101500000F0000EBC00105F1140000EB8104E7605F
:10151000C4F81080002060610120607006F00F00A8
:101520002070A879012800D1E761AA7921462868AE
:1015300003F020F80020BDE8F0812DE9FE4F0446BD
:10154000D4F800B05E46206803F0D0FA002874D1C9
:10155000206803F00AFB08B9BDE8FE8F40F60800DA
:101560008059C0F30D20C4F8D404206803F0FDFABC
:1015700000F00200022805D12068406900F0020056
:1015800021684861206803F0F0FA00F0100010288C
:1015900045D12068806920F0100021688861DBF85F
:1015A000209009F00F0000EBC00104F5157000EB6E
:1015B000810AC9F3434002281AD147F6F07009EABC
:1015C000000030B3C9F30A125846DAF80C1003F0E1
:1015D000D1FAC9F30A11DAF80C000844CAF80C0071
:1015E000C9F30A11DAF814000844CAF8140010E02C
:1015F000C9F3434006280CD1082204F29C41584606
:1016000003F0B8FAC9F30A11DAF814000844CAF86A
:1016100014002068806940F010002168886120680B
:1016200003F0A3FA00F40020B0F5002F7BD10025D1
:10163000206803F06AFA029072E0D5E2029800F0A6
:101640000100002868D0E9B2206803F081FA8046E2
:1016500008F0010048B1012106F5306000EB4510AB
:1016600081602946204601F025F908F00800082885
:1016700009D1082106F5306000EB4510816029464C
:10168000204601F0E5F808F01000102805D11021DF
:1016900006F5306000EB4510816008F0020002287A
:1016A00024D1DBF8140000F08000802807D140F638
:1016B0000400805940F4806140F60400815105EB3C
:1016C000C50104F5157000EB810A9AF803000128A2
:1016D00006D100208AF80300E9B2204600F08FFA14
:1016E000022106F5306000EB4510816008F0200013
:1016F000202805D1202106F5306000EB45108160DF
:1017000008F40050B0F5005F06D14FF4005106F523
:10171000306000EB451081606D1C0298400802901B
:10172000029800288AD1206803F01FFA00F4802074
:10173000B0F5802F7DD1206803F0DDF902900025FF
:101740009AE0029800F00100002873D0E9B2206806
:1017500003F0E5F9804608F00100F0B305F00F0151
:1017600001208840019040F634008159019821EA17
:10177000000040F634018851012106F5106000EBAD
:1017800045108160A079012824D105EBC50104F141
:10179000140000EB810005EBC502C16804F11400E0
:1017A00000EB82008068014405EBC50204F11400DF
:1017B00000EB8200C1606DB905EBC50104F11400B6
:1017C00000EB8100006928B904F29C4201212068E5
:1017D00002F004FEE9B2204600E001E0FFF715FD4B
:1017E00008F00800082805D1082106F5106000EB74
:1017F0004510816008F01000102805D1102106F571
:10180000106000EB4510816008F04000402805D1D1
:10181000402106F5106000EB4510816008F00200E1
:1018200002281DD12946584603F023F905EBC501CE
:1018300001E025E01CE004F1140000EB810A9AF8B5
:101840000300012806D100208AF80300E9B22046EF
:1018500000F0CCF9022106F5106000EB4510816024
:1018600008F08000802803D12946204601F0C4F802
:101870006D1C029840080290029800287FF461AF26
:10188000206803F072F900F00040B0F1004F10D171
:1018900040F60400805920F0010140F60400815117
:1018A000204600F0D1FA2068406900F0004021682D
:1018B0004861206803F059F900F40060B0F5006F4A
:1018C0000ED140F60800805900F0010010B120460A
:1018D00000F006FB2068406900F400602168486160
:1018E000206803F042F900F48050B0F5805F7ED1AB
:1018F00040F60400805920F0010140F604008151B7
:101900001021206803F0B5F8002732E04FF67F3150
:1019100006F5106000EB4710816006F5106000EBE3
:101920004710006820F4001106F5106000EB471026
:1019300001604FF67F3106F5306000EB47108160A3
:1019400006F5306000EB4710006820F4001106F542
:10195000306000EB4710016006F5306000EB471087
:10196000006840F0006106F5306000EB4710016050
:101970007F1C2079B842C9D840F61C00805940F03D
:10198000011140F61C008151E07B70B1D6F884084B
:1019900040F00B01C6F8841840F64400805940F02E
:1019A0000B0140F6440081510FE040F614008059CD
:1019B00042F22B01084340F614018851081F805958
:1019C00040F00B014FF401608151D6F8000820F47B
:1019D000FE60C6F80008A17904F29C42206802F07B
:1019E000FDFC2068406900F48050216800E000E0C0
:1019F0004861206803F0B9F800F40050B0F5005FCA
:101A000017D1206802F0A8FA206803F05CF8E071B2
:101A100000F046FB0090E2792068009903F02CF971
:101A2000204600F0F9F92068406900F40050216870
:101A30004861206803F099F800F00800082808D1F0
:101A4000204600F008FA2068406900F0080021688C
:101A50004861206803F089F800F08000802818D1E0
:101A6000DBF8180020F08000CBF8180001250DE00D
:101A700005EBC50104F5157000EB8100C078012865
:101A800003D1E9B22046FFF7E7FB6D1C2079A8429D
:101A9000EED8206803F069F800F48010B0F5801FDC
:101AA0002DD1012522E006F5106000EB4510D0F89D
:101AB000009005EBC50104F1140000EB81000079F2
:101AC000012812D109F00040B0F1004F0DD10121E1
:101AD00005EBC50204F1140000EB8200C170E8B20E
:101AE00040F080012046FFF7B7FB6D1C2079A8422B
:101AF000D9D82068406900F48010216848612068C6
:101B000003F033F800F40010B0F5001F44D10125B4
:101B100038E006F5306000EB4510D0F8009005EB9A
:101B2000C50104F5157000EB81000079012828D16A
:101B300009F00040B0F1004F23D109F4803094F84F
:101B4000D41401F0010188421BD1012105EBC5022B
:101B500004F5157000EB8200C170DBF8180040F04E
:101B60008000CBF81800DBF8140000F0800040B9CA
:101B700040F60400805940F4007140F604008151A1
:101B800003E06D1C2079A842C3D800BF20684069DB
:101B900000F4001021684861206802F0E6FF00F0C0
:101BA0008040B0F1804F08D12046FFF727FB206826
:101BB000406900F0804021684861206802F0D5FF4C
:101BC00000F0040004280FD12068D0F8049009F038
:101BD0000400042802D12046FFF737FB2068406844
:101BE00040EA09002168486000BFB5E470B50446CA
:101BF0000D462946D4F8D80401F0A2FD70BD70B599
:101C000004460D462946D4F8D80401F09CFD70BD69
:101C1000F8B504460CB90120F8BD266894F895047F
:101C200028B9002084F89404204600F0A1F803208D
:101C300084F89504B6F1A04F01D10021A17120686C
:101C400002F0C4FB207C8DF8000094E80F0002F045
:101C500097F920B1022084F895040120DCE70021E7
:101C6000206802F0B7FF20B1022084F8950401201B
:101C7000D2E7002531E0012105EBC50204F1140093
:101C800000EB8200417005EBC50104F1140000F87F
:101C9000215005EBC50100EB81004583002105EBD8
:101CA000C50204F1140000EB8200017105EBC502CE
:101CB00004F1140000EB8200816005EBC50204F121
:101CC000140000EB8200C16005EBC50204F11400B2
:101CD00000EB82000161681CC5B22079A842CADC11
:101CE00000252AE0002105EBC50204F5157000EB84
:101CF0008200417005EBC50104F5157000F8215014
:101D0000002105EBC50200EB8200017105EBC50265
:101D100004F5157000EB8200816005EBC50204F547
:101D2000157000EB8200C16005EBC50204F515706B
:101D300000EB82000161681CC5B22079A842D1DCA9
:101D4000207C8DF8000094E80F0002F04BFA20B1DF
:101D5000022084F8950401205EE7002060740120D1
:101D600084F89504206802F02BFA002054E7000064
:101D700010B586B00446142101A8FEF757FA206872
:101D8000B0F1A04F42D100BF002000902048006871
:101D900040F001001E4908600846006800F001009C
:101DA000009000BF00BF4FF4C0500190022002908D
:101DB00000200390032004900A20059001A91548F3
:101DC000FFF710F800BF1248001D006840F08000C7
:101DD0000F49091D086000BF002000900C48143016
:101DE000006840F480400A491431086008460068E1
:101DF00000F48040009000BF00BF00BF00221146E9
:101E00004320FFF77DF94320FFF76AF906B010BDC4
:101E1000303802400000024070B504460125E079E8
:101E200008B9002506E0E079022801D1012501E08A
:101E3000FEF719FB2946D4F8D80401F001FDD4F8C7
:101E4000D80401F0B3FC70BD10B50446D4F8D80432
:101E500001F0DAFC10BD10B50446D4F8D80401F046
:101E6000DEFC10BD70B504460D4600BF94F8940426
:101E7000012801D1022070BD012084F8940400BF24
:101E800065742946206802F0D9FE00BF002084F85E
:101E9000940400BF00BFEEE710B5044604F29C4175
:101EA000D4F8D80401F0E3FC10BD10B5044600BF1F
:101EB00094F89404012801D1022010BD012084F877
:101EC000940400BF206802F0A5FD206802F066F9C6
:101ED00000BF002084F8940400BF00BFEDE70000BD
:101EE00010B50446D4F8D80401F01AFD2068D0F8E3
:101EF000000E40F001002168C1F8000EE07A28B120
:101F00000348006840F006000149086010BD000069
:101F100010ED00E070B504460D460CB9012070BD0F
:101F20005A48006800F00F00A84209D257490D70C6
:101F30000846006800F00F00A84201D00120EEE73B
:101F4000207800F0020002281DD1207800F0040063
:101F5000042805D14E48006840F4E0504C49086020
:101F6000207800F00800082805D14948006840F4AE
:101F70006040474908604648006820F0F000A168CA
:101F8000084343490860207800F0010090B360687E
:101F9000012807D13E4808380068C0F34040A0B986
:101FA0000120BCE76068022807D13948083800687A
:101FB000C0F3406048B90120B1E7354808380068EF
:101FC000C0F3400008B90120A9E73148006820F0BB
:101FD0000300616808432E490860FFF707F80646CA
:101FE00009E0FFF703F8801B41F28831884202D9EB
:101FF000032094E707E02648006800F00C006168C1
:10200000B0EB810FEDD12148006800F00F00A8422D
:1020100009D91E490D700846006800F00F00A8425B
:1020200001D001207BE7207800F00400042807D1CC
:102030001748006820F4E050E1680843144908603C
:10204000207800F00800082808D11148006820F422
:102050006040216940EAC1000D49086000F026F89F
:102060000B49096801F0F001F02292FAA2F2B2FAEB
:1020700082F2D140074A515CC840074908600748CE
:102080000068FEF7E3FF002049E70000003C024043
:1020900008380240185000080C00002004000020FE
:1020A00001480068704700000C0000202DE9F0474F
:1020B000002400250026A1462548006800F00C00F9
:1020C00020B1042805D008283AD105E0DFF8849033
:1020D00039E0DFF8849036E01D48001F006800F00A
:1020E0003F041B48001F006800F4800078B11A48C4
:1020F0001749091F0968C1F38811A0FB0170014647
:10210000224600233846FEF759F805460EE01148EE
:102110000F49091F0968C1F38811A0FB017001462E
:10212000224600233846FEF749F805460848001FB6
:102130000068C0F30140401C4600B5FBF6F902E020
:10214000DFF8109000BF00BF4846BDE8F0870000F0
:10215000083802400024F40000127A00F8B5044662
:102160000CB90120F8BD207800F00100002848D00B
:10217000F948006800F00C0004280DD0F64800680B
:1021800000F00C00082811D1F348001F006800F48B
:102190008000B0F5800F09D1EF4808380068C0F31F
:1021A000404070B3606860BB0120DBE72079EA49FA
:1021B000891F0870606890B1FEF718FF054606E0B9
:1021C000FEF714FF401B642801D90320CAE7E24848
:1021D00008380068C0F340400028F1D011E0FEF755
:1021E00005FF054606E0FEF701FF401B642801D904
:1021F0000320B7E7D84808380068C0F340400028FB
:10220000F1D1207800F00200022869D1D24800689C
:1022100000F00C0058B1D048006800F00C0008280D
:1022200021D1CD48001F006800F48000D8B9CA4809
:1022300008380068C0F3400020B1E068012801D0F0
:1022400001208FE7C4480838006820F0F800F82221
:1022500092FAA2F2B2FA82F2216991400843BE4991
:10226000083908603CE0E06828B30120BB490860F9
:10227000FEF7BCFE054606E0FEF7B8FE401B02284E
:1022800001D903206EE7B44808380068C0F3400065
:102290000028F1D0B0480838006820F0F800F82293
:1022A00092FAA2F2B2FA82F2216991400843AA4955
:1022B0000839086014E00020A8490860FEF796FE7F
:1022C000054606E0FEF792FE401B022801D90320D6
:1022D00048E7A14808380068C0F340000028F1D161
:1022E000207800F0080008282CD16069A8B10120EE
:1022F0009B490860FEF77AFE054606E0FEF776FE8B
:10230000401B022801D903202CE793486C30006859
:10231000C0F340000028F1D014E00020904908608C
:10232000FEF764FE054606E0FEF760FE401B02284D
:1023300001D9032016E788486C300068C0F34000DC
:102340000028F1D1207800F00400042874D1002680
:1023500081483830006800F0805090B900BF0020FC
:1023600000907D483830006840F080507A4938311C
:1023700008600846006800F08050009000BF00BF71
:1023800001267848006840F4807076490860084665
:10239000006800F48070A8B90846006840F48070B6
:1023A0000860FEF723FE054606E0FEF71FFE401B11
:1023B000022801D90320D5E66A48006800F480703D
:1023C0000028F2D0207A644968310870A068A0B172
:1023D000FEF70CFE054608E0FEF708FE401B41F242
:1023E0008831884201D90320BCE65B486830006828
:1023F000C0F340000028EFD013E0FEF7F7FD0546DC
:1024000008E0FEF7F3FD401B41F28831884201D914
:102410000320A7E6504868300068C0F34000002859
:10242000EFD1012E07D14C483830006820F08050A1
:1024300049493831086000BFA06900284BD04648A0
:10244000006800F00C0008285CD0A069022843D185
:10245000002042490866FEF7C9FD054606E0FEF782
:10246000C5FD401B642801D903207BE63A480838A3
:102470000068C0F340600028F1D1D4E907010843A7
:10248000616A40EA81112C20005D41EA006101226D
:10249000A06AC2EB500041EA00402F49091F0968B9
:1024A000314A114008432C49091F086001202B497B
:1024B0000866FEF79BFD054606E0FEF797FD401B0C
:1024C000642801D903204DE6234808380068C0F38A
:1024D00040600028F1D04AE0002020490866FEF75D
:1024E00085FD054606E0FEF781FD401B642801D905
:1024F000032037E6184808380068C0F34060002819
:10250000F1D134E0A069012800D12BE61248001F68
:10251000016801F48002E06982421BD101F03F02B0
:10252000206A824216D147F6C0700840626AB0EB5A
:10253000821F0FD101F440320123A06AC3EB500087
:10254000B2EB004F06D101F070622C20005DB2EBBF
:10255000006F0BD0012005E608380240000047421A
:10256000800E4742007000400080BCF000BF002099
:10257000F8E570B504462546681EB0F1807F01D3AA
:1025800001200FE0681E4FF0E02148610F214FF05D
:10259000FF3002F011FC00204FF0E021886107209D
:1025A0000861002070BD00BFFEE730B50B4600217A
:1025B00000BF16E00A24B4EB107F05D9302404EBE9
:1025C000107403F8114005E0412404EB10740A3C38
:1025D00003F81140000100254C00641C1D554C1CE3
:1025E000E1B29142E6DB30BD10B50E480E490860FD
:1025F0000520486000210C488160C1604FF48021B3
:1026000001614FF4A001416100210176417681769C
:10261000C17601774177FEF781FA08B1FDF723FF14
:1026200010BD0000006400409401002000B587B098
:10263000142102A8FDF7FAFD00BF002001906548B3
:10264000006840F00400634908600846006800F034
:102650000400019000BF00BF00BF002001900846A9
:10266000006840F0800008600846006800F08000C4
:10267000019000BF00BF00BF002001900846006825
:1026800040F0010008600846006800F00100019079
:1026900000BF00BF00BF002001900846006840F066
:1026A000020008600846006800F00200019000BFC8
:1026B00000BF00BF002001900846006840F02000E5
:1026C00008600846006800F02000019000BF00BFCD
:1026D00000BF002001900846006840F040000860FC
:1026E0000846006800F04000019000BF00BF00BF36
:1026F000002001900846006840F008000860084685
:10270000006800F00800019000BF00BF0122902186
:102710003148FEF765FC00224FF4B0712E48FEF7F9
:102720005FFC002230212D48FEF75AFC00220321D5
:102730002B48FEF755FC0122D1022A48FEF750FC37
:1027400000224FF470412748FEF74AFC012211464F
:102750002548FEF745FC4FF4F870029001200390E5
:10276000002004900320059002A91B48FEF73AFBC5
:102770003020029001200390002004900320059057
:1027800002A91648FEF72EFB0320029001200390B9
:10279000002004900320059002A91148FEF722FBB7
:1027A0004FF4784002900120039000200490032011
:1027B000059002A90B48FEF715FB0120029003903B
:1027C000002004900320059002A90748FEF70AFBA9
:1027D00007B000BD3038024000000240000802404F
:1027E00000040240001402400018024010B500220C
:1027F0000D490E4800F029FE08B1FDF734FE0C49E2
:102800000A4801F0C3F808B1FDF72DFE0949074851
:1028100000F0B9FA08B1FDF726FE044801F080F98E
:1028200008B1FDF720FE10BD10000020BC01002003
:10283000880000206800002000BFFEE700BFFEE720
:1028400010B50248FEF779FE10BD0000801600208A
:102850002DE9F04704460D4626683746D6F84080F5
:1028600007F5306000EB4510D0F80890104880451F
:102870000BD909F40040B0F5004F06D14FF40041E8
:1028800007F5306000EB451081602046FFF704FB40
:102890000748804508D9A079012805D104F29C4257
:1028A0000121206801F09AFD0020BDE8F0870000BA
:1028B0000A30544F2DE9F04705460C46D5F80090F4
:1028C0004E46D9F840A006F5306000EB4410D0F831
:1028D0000880A879012855D108F0080008280FD1F0
:1028E000434882450BD908F40040B0F5004F7BD136
:1028F0004FF4004106F5306000EB4410816073E056
:1029000008F02000202806D1202106F5306000EBD9
:102910004410816068E008F02800002864D1344841
:1029200082450CD908F40040B0F5004F07D14FF4B0
:10293000004106F5306000EB4410816054E004EB88
:10294000C40105F5157000EB810706F5306000EB5A
:102950004410396A0069C0F31200081A786164B93A
:10296000386930B905F29C420121286801F036FD32
:1029700003E07969F8680844F860E1B22846FEF798
:1029800054FC31E01B4882451BD108F40040B0F5EF
:10299000004F07D14FF4004106F5306000EB4410C2
:1029A000816021E008F02000202805D1202106F5D3
:1029B000306000EB44108160E1B22846FEF735FC40
:1029C00012E06CB904EBC40105F5157000EB810051
:1029D000006928B905F29C420021286801F0FEFC3C
:1029E000E1B22846FEF721FC0020BDE8F087000098
:1029F0000A30544F0A31544F2DE9F84F07460E461E
:102A0000D7F80090C84606EBC60107F1140000EBAA
:102A10008104D4E90410884202D90120BDE8F88F6E
:102A2000D4E90401451AA068A84200D2A568E81CB0
:102A30004FEA900A17E0D4E90401451AA068A842B9
:102A400000D2A568E81C4FEA900AB879ABB2F2B29E
:102A500000904846E16802F083F9E0682844E060AD
:102A600060692844606108F5106000EB46108069D9
:102A700080B2504506D3D4E90410884202D22069BE
:102A80000028D8D1D4E9040188420ED806F00F01FD
:102A9000012000FA01FB40F6340050F8080020EA5B
:102AA0000B0040F6340141F808000020B6E77047FB
:102AB000704710B5FEF7A0FA10BD00B591B03021F7
:102AC00005A8FDF7B3FB14216846FDF7AFFB012015
:102AD0000590069002200B9041050C9108210D9164
:102AE000F0210E9102210F910521109105A8FFF709
:102AF00035FB08B1FDF7B7FC0F20009002200190D4
:102B0000002002904FF4A05003904FF480500490A6
:102B100003216846FFF7FEF908B1FDF7A4FC11B0E8
:102B200000BD70472DE9F04104460D46D4F8B86267
:102B3000D4F8C072D4F8B80278B305EB850104F17B
:102B4000140000EB8100806808B305EB850104F1F7
:102B5000140000EB810005EBC502816807F1140049
:102B600000EB82008068B1FBF0F200FB121070B93C
:102B7000002105EB850204F1140000EB8200816066
:102B800000231A462946204600F0D4FE02E0002029
:102B9000C6F814020020BDE8F081FFE70220FAE742
:102BA00070B504460E46D4F8B8523146204600F0BF
:102BB0006EFDC5F80C02D4F8B80248B1D5F804028D
:102BC000D4F8BC12CA6805F503719047002070BDA7
:102BD0000220FCE770B504460E4600258121204600
:102BE00000F05FFC0021E1620121204600F059FC69
:102BF0000021C4F86C118221204600F052FC002113
:102C00002164D4F8B80250B1D4F8BC1248688047A7
:102C1000D4F8B80202F00CF90020C4F8B802284633
:102C200070BD70B50546D5F8B842D5F8BC0278B18C
:102C300094F80002FF280BD094F8012294F80002C7
:102C4000D5F8BC128B6821469847FF2084F8000213
:102C5000002070BD01460A2008800148704700002E
:102C60007C00002001464320088001487047000096
:102C700004010020014643200880014870470000FD
:102C8000C000002001464320088001487047000032
:102C9000480100202DE9F04104460F460026207C23
:102CA00088B94FF4007302228121204600F04EFDC6
:102CB0000121E1624B020222204600F047FD012182
:102CC000C4F86C110FE0402302228121204600F05D
:102CD0003DFD0121E16240230222204600F036FD45
:102CE0000121C4F86C11082303228221204600F040
:102CF0002DFD012121644FF4077002F049F9C4F859
:102D0000B802D4F8B80208B901261CE0D4F8B852C9
:102D1000D4F8BC12086880470020C5F81402C5F832
:102D20001802207C40B94FF4007301212046D5F8E9
:102D3000042200F023FD06E0402301212046D5F8BF
:102D4000042200F01BFD3046BDE8F08170B504465A
:102D5000D4F8B852D4F8B80298B1207C40B94FF4F6
:102D6000007301212046D5F8042200F007FD06E09B
:102D7000402301212046D5F8042200F0FFFC00206A
:102D800070BD0220FCE70246022011B1C2F8BC125D
:102D9000002070470246D2F8B832C3F8041200206F
:102DA000704710B50346D3F8B842C4F80812C4F807
:102DB0001022002010BD2DE9FC4105460C46D5F837
:102DC000B8620020019000900027207800F0600099
:102DD00040B320285FD1E088E0B1207800F0800087
:102DE00060B1E2886078D5F8BC128B6831469847AC
:102DF000E2883146284600F0E6F812E0607886F86E
:102E00000002A07986F80102E2883146284600F0E7
:102E1000B9F806E06078D5F8BC1200228B6821462C
:102E200098473EE0607820B10A2812D00B282AD1BA
:102E30001FE095F89C02032805D102226946284626
:102E400000F0C1F804E02146284600F08FF8022780
:102E50001FE095F89C02032805D1012201A928460C
:102E600000F0B1F804E02146284600F07FF8022780
:102E70000FE095F89C02032804D02146284600F074
:102E800075F8022705E02146284600F06FF8022772
:102E900000BF00BF05E02146284600F067F8022782
:102EA00000BF00BF3846BDE8FC8170B50546D5F8C7
:102EB000B842D5F8B802A8B1D4F8140280B90120FC
:102EC000C4F81402D4F810122963B4F8100283B2C3
:102ED00081212846D4F8082200F02CFD002070BD86
:102EE0000120FCE70220FAE770B504460D46D4F84D
:102EF000B4022946426820469047002070BD70B554
:102F000004460D4694F89C02012804D0022803D000
:102F100003280CD101E000BF00BF6888012805D15B
:102F20000020C4F8A402204600F05EF804E0294620
:102F3000204600F01BF800BF00BF70BD70B506460C
:102F40000C4615462B4622460021304600F016FC62
:102F5000002070BD70B506460C4615462B4622462D
:102F60000021304600F0E6FC002070BD70B504463C
:102F70000D468021204600F0B1FC0021204600F0E3
:102F8000ADFC70BD70B504460E4615460320C4F86E
:102F900094024FF4AE700551001D05512B46324688
:102FA0000021204600F0EAFB002070BD10B5044669
:102FB0000520C4F8940200231A461946204600F062
:102FC000DDFB002010BD70B504460E4615460220FC
:102FD000C4F89402E56125622B4632460021204662
:102FE00000F0A8FC002070BD10B504460420C4F811
:102FF000940200231A461946204600F09BFC00204C
:1030000010BD000070B505460C462DB92246064994
:1030100006A000F0DBF904E02246034903A000F01B
:10302000D5F9014870BD00008004002043444320CE
:10303000436F6E66696700000246122008800148EF
:10304000704700002C00002070B505460C462DB9D5
:103050002246064906A000F0B9F904E022460349D9
:1030600003A000F0B3F9014870BD00008004002007
:1030700043444320496E74657266616365000000D5
:1030800002460420088001487047000040000020EC
:1030900070B505460C462246024903A000F096F999
:1030A000004870BD8004002053544D6963726F6501
:1030B0006C656374726F6E696373000070B505466A
:1030C0000C462DB92246064906A000F07FF904E01F
:1030D0002246034903A000F079F9014870BD0000C1
:1030E0008004002053544D33322056697274756148
:1030F0006C20436F6D506F727400000070B5054610
:103100000C461A202080FDF7B1F9014870BD00007F
:103110004400002070B504460D46E888012804D01C
:1031200029462046FFF722FF1EE094F89C02012862
:1031300004D0022803D0032810D109E000BF0020EA
:10314000A060012204F108012046FFF73CFF0AE0DD
:103150000122211D2046FFF736FF04E029462046C4
:10316000FFF704FF00BF00BF70BDF8B504460E4670
:10317000002000900027002570880012082875D2D2
:10318000DFE800F0C7040C20C7C7A5B5207CD4F841
:10319000B0120A68694690470746C1E0207C40B9F2
:1031A000D4F8B402816A68468847074602207870DE
:1031B00007E0D4F8B402C16A68468847074602208F
:1031C0007870ADE0B078062878D2DFE800F003161A
:1031D000293C5063D4F8B002406838B1207CD4F860
:1031E000B0124A6869469047074605E031462046D6
:1031F000FFF7BCFE681CC5B267E0D4F8B002806877
:1032000038B1207CD4F8B0128A68694690470746E6
:1032100005E031462046FFF7A9FE681CC5B254E020
:10322000D4F8B002C06838B1207CD4F8B012CA68B3
:1032300069469047074605E031462046FFF796FE6F
:10324000681CC5B241E0D4F8B002006938B1207CF6
:10325000D4F8B0120A6969469047074605E031463E
:103260002046FFF783FE681CC5B22EE051E0D4F87B
:10327000B002406938B1207CD4F8B0124A6969467E
:103280009047074605E031462046FFF76FFE681C71
:10329000C5B21AE0D4F8B002806940B1207CD4F8FD
:1032A000B0128A6969469047074606E006E0314653
:1032B0002046FFF75BFE681CC5B206E0314620469B
:1032C000FFF754FE681CC5B200BF00BF28E0207C99
:1032D00030B9D4F8B402416B68468847074605E028
:1032E00031462046FFF742FE681CC5B218E0207C3C
:1032F00040B9D4F8B402016B6846884707460720F6
:10330000787005E031462046FFF730FE681CC5B2F4
:1033100006E031462046FFF729FE681CC5B200BF13
:1033200000BF05B1F8BDBDF8000088B1F08878B1E4
:10333000F088BDF80010884202DDBDF8000000E012
:10334000F0880090BDF8002039462046FFF73BFE8C
:10335000F08810B92046FFF747FE00BFE2E70146BC
:10336000002002E0421CD0B2491C0A78002AF9D1A0
:10337000704770B504460D4694F89C02012804D0AD
:10338000022803D003281AD101E000BF00BFE8885B
:10339000022804D029462046FFF7E8FD14E001206A
:1033A000E060D4F8A40218B1E06840F00200E060E8
:1033B000022204F10C012046FFF705FE04E0294635
:1033C0002046FFF7D3FD00BF00BF70BD2DE9F041DF
:1033D00004460D4617460026FCB12046FFF7BFFF06
:1033E000022101EB400038803A783046711CCEB2A1
:1033F0002A5403223046711CCEB22A540AE014F833
:10340000012B3046711CCEB22A5400223046711C6A
:10341000CEB22A5420780028F1D1BDE8F0810146CF
:10342000002031B1012906D0022906D0032908D194
:1034300005E0002007E0022005E0012003E0022073
:1034400001E0022000BF00BF704770B504460D4682
:1034500016460CB9022070BDD4F8B40210B1002099
:10346000C4F8B4020DB1C4F8B052012084F89C0233
:103470002670204600F014F90020ECE72DE9F04119
:1034800004460D46002600272946D4F8C002FDF761
:1034900039FF06463046FFF7C2FF07463846BDE80B
:1034A000F0812DE9F04104460D460026002729460B
:1034B000D4F8C002FDF7F1FE06463046FFF7AFFF35
:1034C00007463846BDE8F0812DE9F04104460E4636
:1034D0001746002E64D104F11405D4F89402022892
:1034E00048D1D5E90301884210D9D5E90301401A32
:1034F000E860A88982B239462046FFF72BFD0023F9
:103500001A461946204600F039F93EE02969A868B4
:10351000B0FBF1F201FB1200B8B92969A868884232
:1035200013D3A868D4F8981288420ED2002211460C
:103530002046FFF70FFD0020C4F8980200231A462A
:103540001946204600F01AF91FE0D4F8B402C0680A
:1035500040B194F89C02032804D1D4F8B402C168A5
:10356000204688478021204600F0B8F92046FFF722
:103570001DFD0AE0D4F89402042802D0D4F8940285
:1035800018B98021204600F0A9F994F8A00201287A
:1035900018D1204600F002FA002084F8A00211E0C1
:1035A000D4F8B402406950B194F89C02032806D1C3
:1035B000D4F8B402314642692046904702E0022026
:1035C000BDE8F0810020FBE72DE9F04104460E46FE
:1035D0001746BEBB04F5AA75D4F89402032825D17A
:1035E000D5E90301884210D9D5E90301401AE86002
:1035F000D5E90301884201D2E86800E0286982B277
:1036000039462046FFF79AFC2FE0D4F8B40200694F
:1036100040B194F89C02032804D1D4F8B4020169A3
:10362000204688472046FFF7DFFC1EE0D4F89402CE
:1036300005281AD10020C4F894020021204600F089
:103640004DF912E0FFE7D4F8B402806950B194F864
:103650009C02032806D1D4F8B40231468269204680
:10366000904702E00220BDE8F0810020FBE7014620
:103670000020704710B50446012084F89C0221798F
:10368000D4F8B402426820469047002010BD70B5BF
:1036900004460D462946D4F8C002FDF771FE70BD00
:1036A00010B504462078002829D11648C0F8D8441F
:1036B000C4F8C0024FF0A04012490860042008710D
:1036C00002211048C1710021817102214172002143
:1036D0008172C1728173C173FEF79AFA08B1FCF767
:1036E000C2FE80210748FDF75DFD4022002105480C
:1036F000FDF75DFD802201210248FDF758FD002005
:1037000010BD00008016002010B50246D2F8C0326D
:1037100001F08000802809D101F07F0000EBC00497
:1037200003F1140000EB8400807810BD01F07F00ED
:1037300000EBC00403F5157000EB84008078F4E71B
:103740000246002070470246002070472DE9F047EE
:1037500004460F4615461E464FF00008C1462B464C
:1037600032463946D4F8C002FDF715FE8046404681
:10377000FFF755FE81464846BDE8F0872DE9F04742
:1037800004460D4616461F464FF00008C1463B460C
:1037900032462946D4F8C002FDF743FE8046404633
:1037A000FFF73DFE81464846BDE8F08710B5044668
:1037B0004023002211462046FFF7C8FF01214FF4A5
:1037C000AC70015140214FF4B270015140230022EE
:1037D00080212046FFF7BAFF0121A16140216162EB
:1037E000012084F89C020020C4F894026060C4F8B0
:1037F000A402D4F8B80228B12179D4F8B4024268FE
:1038000020469047002010BD014691F89C020428F4
:1038100003D191F89D0281F89C020020704710B5F9
:10382000044694F89C02032808D1D4F8B402C06975
:1038300020B1D4F8B402C16920468847002010BDE9
:1038400002461174002070472DE9F04104460D46F0
:10385000002600272946D4F8C002FEF703FB0646DF
:103860003046FFF7DCFD07463846BDE8F08170B50D
:1038700004460D46294604F52A7000F073F801202D
:10388000C4F8940240F2AE20005BC4F8980294F8A9
:10389000A80200F01F0020B1012808D0022812D190
:1038A0000BE004F52A71204600F041F913E004F51D
:1038B0002A71204600F0A8FA0DE004F52A7120468E
:1038C00000F086F907E094F8A80200F08001204695
:1038D00000F004F800BF00BF002070BD2DE9F041EA
:1038E00004460D46002600272946D4F8C002FDF7FD
:1038F000BBFD06463046FFF792FD07463846BDE859
:10390000F08170B5044600250026D4F8C002FEF709
:10391000CCFA05462846FFF782FD0646304670BDC4
:10392000014691F89C0281F89D02042081F89C02D6
:10393000002070472DE9F04704460D4616461F4605
:103940004FF00008C1463B4632462946D4F8C00233
:10395000FDF7CFFD80464046FFF761FD81464846B2
:10396000BDE8F0870A7802704A7842708B78CA788E
:1039700003EB022242800B794A7903EB0222828018
:103980008B79CA7903EB0222C2807047024600207D
:1039900011B1C2F8B41200E00220704701460020C5
:1039A000704770B504460D46A88810BBE88800BB78
:1039B000688880281DD2A87800F07F0694F89C02C1
:1039C000032804D129462046FFF7D0FA15E084F8F1
:1039D0009E6231462046FFF737FF2046FFF704FB83
:1039E0001EB1022084F89C0207E0012084F89C02AA
:1039F00003E029462046FFF7B9FA70BD70B50446CA
:103A00000D460226D4F8B40238B1D4F8B4022946DF
:103A100002682046904700B90026304670BD00007D
:103A200070B504460D46A8783649087008460078F7
:103A3000012804D929462046FFF798FA60E094F857
:103A40009C02022802D003284FD11CE02D480078A8
:103A5000A8B12C4800786060032084F89C022948B3
:103A600001782046FFF7CAFF022804D129462046E4
:103A7000FFF77CFA70BD2046FFF7B6FA02E0204659
:103A8000FFF7B2FA3BE01F48007870B9022084F8D3
:103A90009C021C48007860601A4801782046FFF7B5
:103AA00023FA2046FFF7A0FA1EE01649097860685D
:103AB000884216D021792046FFF716FA114800787F
:103AC0006060104801782046FFF798FF022804D173
:103AD00029462046FFF74AFACCE72046FFF784FA4A
:103AE00002E02046FFF780FA09E029462046FFF76A
:103AF0003DFA044801782046FFF7F6F900BF00BF01
:103B000000BFB7E77800002070B505460C46608816
:103B1000012804D1C5F8A4022846FFF765FA70BD54
:103B200010B504462046FFF7ECFE002010BD70B52E
:103B300005460C460026207800F0600060B1202881
:103B400002D040283CD100E000BFD5F8B4022146A5
:103B500082682846904738E060780A2829D2DFE852
:103B600000F01923281E280A0528140F214628468C
:103B7000FFF7FBFA22E021462846FFF712FF1DE07F
:103B800021462846FFF74CFF18E021462846FFF75C
:103B9000C1FA13E021462846FFF7EBFB0EE0214671
:103BA0002846FFF7B1FF09E021462846FFF7A7F9AD
:103BB00004E021462846FFF7D9F900BF00BF04E022
:103BC00021462846FFF7D2F900BF00BF304670BD3E
:103BD0002DE9F04105460E464FF000083479307863
:103BE00000F0600060B1202802D0402871D100E0D0
:103BF00000BFD5F8B402314682682846904700E1FC
:103C0000307800F06000202809D1D5F8B4023146A0
:103C100082682846904780464046BDE8F08170782B
:103C200000285ED001282FD0032876D195F89C0279
:103C3000022802D0032820D110E054B1802C08D0F3
:103C400021462846FFF74AFE80212846FFF746FE18
:103C500003E031462846FFF789F913E0708840B940
:103C60003CB1802C05D0F08818B921462846FFF7D2
:103C700035FE2846FFF7B8F904E031462846FFF73D
:103C800075F900BF00BFB5E095F89C02022802D08C
:103C900003281FD110E054B1802C08D021462846BB
:103CA000FFF71CFE80212846FFF718FE03E031468F
:103CB0002846FFF75BF912E0708848B904F07F00EE
:103CC00018B121462846FFF7D9FB2846FFF78CF9A3
:103CD00005E091E031462846FFF748F900BF00BFF4
:103CE00088E095F89C02022802D0032876D126E0CD
:103CF00034B1802C04D031462846FFF737F972E002
:103D000004F08000802809D104F07F0000EB8001DE
:103D100005F1140000EB810008E066E004F07F008C
:103D200000EB800105F5AA7000EB8100074600203A
:103D30003860022239462846FFF745F953E004F07F
:103D4000800080280ED104F00F0000EB800105F107
:103D5000140000EB8100406898B931462846FFF70F
:103D600005F940E004F00F0000EB800105F5AA70B2
:103D700000EB8100406820B931462846FFF7F6F88D
:103D800031E004F08000802808D104F07F0000EBCF
:103D9000800105F1140000EB810007E004F07F00D2
:103DA00000EB800105F5AA7000EB810007460CB11D
:103DB000802C02D10020386009E021462846FFF718
:103DC000A3FC10B10120386001E00020386002221D
:103DD00039462846FFF7F7F805E0FFE73146284661
:103DE000FFF7C4F800BF00BF04E031462846FFF7E4
:103DF000BDF800BF00BF04E031462846FFF7B6F823
:103E000000BF00BF404608E770B505460C460026D7
:103E1000207800F0600030B1202802D040282AD15C
:103E200000E000BF00BF95F89C02012804D00228E2
:103E300003D0032818D101E000BF00BF207901287A
:103E40000DD8D5F8B4022146826828469047064628
:103E5000E08840B93EB92846FFF7C6F803E021469E
:103E60002846FFF783F804E021462846FFF77EF84E
:103E700000BF00BF04E021462846FFF777F800BFE7
:103E800000BF002070BD000070B504460B462246FE
:103E90001978587801282CD140F61C0080581D78DC
:103EA00005F00F060125B540ADB2284340F61C05CC
:103EB000A85002F5106000EB4110006800F40040CB
:103EC000F0BB1889C0F30A001D7940EA854040EA3A
:103ED000815040F0805040F4004002F5106505EB41
:103EE00041152D68284302F5106505EB4115286042
:103EF0002DE040F61C0080581D7805F00F060125C6
:103F0000B540144E06EA0545284340F61C05A85066
:103F100002F5306000EB4110006800F4004078B911
:103F20001889C0F30A001D7940EA854040F08050AE
:103F300040F4004002F5306505EB41152D6800E0C6
:103F400005E0284302F5306505EB411528600020A7
:103F500070BD00000000FFFF01460A464FF41060EC
:103F60008058C30ADB024FF41060835040F604000F
:103F7000805840F4807340F604008350002070475E
:103F80000FB470B504469DF81900012818D1A06B34
:103F900020F48030A063E06817490840E060E068E2
:103FA00020F44010E0609DF82000012803D1E06873
:103FB00040F48010E060204600F020F805460BE059
:103FC000E06840F04000E060204600F017F8054649
:103FD000A06B40F48030A0639DF81600012807D143
:103FE000A06840F00600A060A06840F02000A0603B
:103FF000284670BC5DF814FBBFFFBDFF08B5014645
:104000000020009000BF0098401C00900098B0F184
:10401000706F01D9032008BD086900F00040002836
:10402000F1D000200090086940F00100086100BF55
:104030000098401C00900098B0F1706F01D90320E7
:10404000E9E7086900F001000028F1D100BFE2E7CC
:1040500070B504460B46224619785878012848D195
:1040600002F5106000EB4110006800F00040B0F174
:10407000004F17D102F5106000EB4110006840F0CE
:10408000006502F5106000EB4110056002F510605C
:1040900000EB4110006840F0804502F5106000EB35
:1040A0004110056040F63C0080581D7805F00F0671
:1040B0000125B540ADB2A84340F63C05A85040F6F6
:1040C0001C0080581D7805F00F060125B540ADB2E3
:1040D000A84340F61C05A85002F5106000EB411003
:1040E00000682B4D284002F5106505EB411528604E
:1040F0004BE002F5306000EB4110006800F000403A
:10410000B0F1004F17D102F5306000EB41100068AC
:1041100040F0006502F5306000EB4110056002F5EB
:10412000306000EB4110006840F0804502F53060DF
:1041300000EB4110056040F63C0080581D7805F00A
:104140000F060125B540134E06EA0545A84340F683
:104150003C05A85040F61C008558187800F00F0662
:104160000120B0400B4E06EA0040854340F61C009B
:10417000855002F5306000EB41100068064D284084
:1041800002F5306505EB41152860002070BD000088
:10419000007833EC0000FFFF0078F3EF01460A4699
:1041A000D2F8000E20F00300C2F8000E40F6040022
:1041B000805820F0020340F604008350002070472E
:1041C00001460A46D2F8000E20F00300C2F8000EA5
:1041D00040F60400805840F0020340F6040083508B
:1041E000002070470FB4F0B5054600272E46002486
:1041F00005E0002105F5827040F82410641C0F2CA6
:10420000F7D39DF82200A0B940F60400805940F091
:10421000020140F604008151A86B40F40010A8632D
:10422000A86B20F40020A863A86B20F48020A8636A
:1042300007E0A86B20F40010A863A86B40F40020EE
:10424000A8630020C6F8000E9DF81D0001280CD1BF
:104250009DF81B0020B90021284600F004FD08E06D
:104260000121284600F0FFFC03E00321284600F06E
:10427000FAFC1021284600F0FCFB00B1012728467B
:1042800000F0CFFB00B1012700214FF40160815104
:10429000001D815140F61C00815100242EE006F5DE
:1042A000106000EB4410006800F00040B0F1004FD7
:1042B00010D13CB94FF0006106F5106000EB4410DE
:1042C00001600DE04FF0904106F5106000EB4410E6
:1042D000016005E0002106F5106000EB441001606C
:1042E000002106F5106000EB441001614FF67F31AC
:1042F00006F5106000EB44108160641C9DF8180006
:10430000A042CCD800242EE006F5306000EB44102B
:10431000006800F00040B0F1004F10D13CB94FF000
:10432000006106F5306000EB441001600DE04FF0D5
:10433000904106F5306000EB4410016005E000217B
:1043400006F5306000EB44100160002106F5306096
:1043500000EB441001614FF67F3106F5306000EB51
:1043600044108160641C9DF81800A042CCD84FF422
:104370000160805920F480714FF401608151002068
:10438000A8616FF0804068619DF81A0018B9A869AB
:1043900040F01000A861A8690A490843A8619DF887
:1043A0001E0018B1A86940F00800A8619DF822001D
:1043B000012803D1A86904490843A8613846F0BC24
:1043C0005DF814FB00383C8004000040014688681A
:1043D00020F00100886000207047000070B503469F
:1043E0000C4619461D6C1848854209D94FF43060B7
:1043F000405800F00040B0F1004F01D1002070BDE6
:104400000026C1F8106BD1F8100B40F40026C1F85B
:10441000106BD1F8100B40F01806C1F8106BD1F8F2
:10442000100B40F0C046C1F8106B012C09D1C1F847
:10443000142B4FF43060405840F080264FF4306029
:1044400046500020DBE700000A30544F30B50446E8
:104450000B4622461978587801281ED102F51060C3
:1044600000EB4110006820F4001502F5106000EB2D
:10447000411005601879032802D0187902282AD142
:1044800002F5106000EB4110006840F0805502F525
:10449000106000EB411005601DE002F5306000EB9C
:1044A0004110006820F4001502F5306000EB411067
:1044B00005601879032802D0187902280BD102F57B
:1044C000306000EB4110006840F0805502F530602C
:1044D00000EB41100560002030BD30B504460B46AE
:1044E000224619785878012821D102F5106000EB96
:1044F0004110006800F0004060B959B102F5106049
:1045000000EB4110006820F0804502F5106000EBE0
:104510004110056002F5106000EB4110006840F4A6
:10452000001502F5106000EB4110056020E002F577
:10453000306000EB4110006800F0004060B959B1F4
:1045400002F5306000EB4110006820F0804502F574
:10455000306000EB4110056002F5306000EB411067
:10456000006840F4001502F5306000EB4110056072
:10457000002030BD2DE9F84381460E4617464D46D2
:104580003478707801287DD1306920BB05F5106042
:1045900000EB44100069E349084005F5106101EBA8
:1045A0004411086105F5106000EB4410006940F407
:1045B000002105F5106000EB4410016105F5106065
:1045C00000EB44100069C10CC90405F5106000EB54
:1045D000441001616BE005F5106000EB44100069C8
:1045E000C10CC90405F5106000EB4410016105F52C
:1045F000106000EB44100069CA49084005F51061DD
:1046000001EB4411086194B9B1683069884201D95D
:10461000B068306105F5106000EB4410006940F4AB
:10462000002105F5106000EB4410016114E0B16851
:1046300030690844401EB0FBF1F0BA49C94301EAB1
:10464000C04005F5106101EB44110969084305F507
:10465000106101EB4411086105F5106000EB441096
:1046600000693169C1F31201084305F5106101EBDE
:10467000441108613079012819D105F5106000EB6B
:10468000441000E093E0006920F0C04105F510609F
:1046900000EB4410016105F5106000EB4410006967
:1046A00040F0005105F5106000EB44100161012F4E
:1046B00036D1F06928B105F5106000EB4410F169BE
:1046C0004161307901281ED140F60800405900F4BC
:1046D000807060B905F5106000EB4410006840F090
:1046E000005105F5106000EB441001600BE005F58A
:1046F000106000EB4410006840F0805105F5106038
:1047000000EB4410016005F5106000EB44100068F8
:1047100040F0044105F5106000EB44100160FEE03C
:1047200005F5106000EB4410006840F0044105F509
:10473000106000EB44100160307901280FD030691F
:104740000028ECD040F634004059317801F00F02D7
:1047500001219140084340F634014851DFE040F622
:104760000800405900F4807060B905F5106000EB56
:104770004410006840F0005105F5106000EB441053
:1047800001600BE005F5106000EB4410006840F09C
:10479000805105F5106000EB441001600097308AED
:1047A00083B232784846F16800F0DAFAB7E005F5EE
:1047B000306000EB44100069C10CC90405F530609D
:1047C00000EB4410016105F5306000EB4410006916
:1047D0005449084005F5306101EB4411086104BB00
:1047E000306908B1B0683061B068306205F530609A
:1047F00000EB44100069316AC1F31201084305F56A
:10480000306101EB4411086105F5306000EB4410A4
:10481000006940F4002105F5306000EB44100161AF
:1048200045E03069D0B905F5306000EB441000690F
:10483000B168C1F31201084305F5306101EB441181
:10484000086105F5306000EB4410006940F4002178
:1048500005F5306000EB4410016128E0B168306973
:104860000844401EB0FBF1F01FFA80F8B06800FB6E
:1048700008F0306205F5306000EB4410006929490A
:10488000C94301EAC841084305F5306101EB441111
:10489000086105F5306000EB44100069316AC1F32E
:1048A0001201084305F5306101EB44110861012F45
:1048B00007D1F06828B105F5306000EB4410F168CD
:1048C0004161307901281ED140F60800405900F4BA
:1048D000807060B905F5306000EB4410006840F06E
:1048E000005105F5306000EB441001600BE005F568
:1048F000306000EB4410006840F0805105F53060F6
:1049000000EB4410016005F5306000EB44100068D6
:1049100040F0044105F5306000EB441001600020D8
:10492000BDE8F883FFFF07E078B503460024009454
:1049300000201A464C78012C35D10C7802F5106510
:1049400005EB4414246804F00044B4F1004F60D136
:104950000C7805EB4414246844F000660C7805EBF1
:10496000441426600C7805EB4414246844F0804617
:104970000C7805EB4414266000BF009C641C009476
:1049800042F21075009CAC4201D901200AE00C787B
:1049900002F5106505EB4414246804F00044B4F1FA
:1049A000004FEAD035E00C7802F5306505EB441491
:1049B000246804F00044B4F1004F2AD10C7805EBD0
:1049C0004414246844F000660C7805EB4414266017
:1049D0000C7805EB4414246844F080460C7805EB11
:1049E0004414266000BF009C641C009442F21075C1
:1049F000009CAC4201D901200AE00C7802F5306538
:104A000005EB4414246804F00044B4F1004FEAD0EC
:104A100000BF78BD0146886840F001008860002032
:104A2000704708B501460020009000BF0098401C68
:104A300000900098B0F1706F01D9032008BD08699B
:104A400000F000400028F1D0002000901020086104
:104A500000BF0098401C00900098B0F1706F01D921
:104A60000320EBE7086900F010001028F1D00020C7
:104A7000E4E708B502460020009000BF0098401C03
:104A800000900098B0F1706F01D9032008BD106943
:104A900000F000400028F1D000200090202040EAE3
:104AA0008110106100BF0098401C00900098B0F188
:104AB000706F01D90320E9E7106900F02000202879
:104AC000F1D00020E2E710B501460B4640F608049D
:104AD000E45804F006020AB9002006E0022A01D0D8
:104AE000062A01D1022000E00F2010BD01464869CE
:104AF00000F00100704701460B4640F61800C2580E
:104B0000001DC058024090B2704701460B4640F667
:104B10001800C258001DC0580240100C704770B5F4
:104B2000024613464FF40166F45840F63406F55831
:104B300001F00F0625FA06F606F0010644EAC6144F
:104B400003F5106606EB4116B66806EA040070BD70
:104B500010B50246134603F5306404EB4114A06817
:104B600040F61404E458204010BD014648698A69A3
:104B7000104070472DE9F04104460D46274628466F
:104B80004FEA920C02F0030300210AE04FF4805830
:104B900058F80780C0F80080401C401C401C401C96
:104BA000491C6145F2D39BB100214FF4805858F85D
:104BB000076000BF4FEAC10826FA08F880F80080B5
:104BC000491C401CA3F101081FFA88F3002BF1D106
:104BD000BDE8F08170B504460E460025E06820F07F
:104BE000C040E060012E10D1E06840F00050E0606D
:104BF00000BF0A20FCF7E2F80A352046FFF776FFEF
:104C0000012815D0C82DF4D312E07EB9E06840F039
:104C10008040E06000BF0A20FCF7D0F80A3520464B
:104C2000FFF764FF20B1C82DF5D301E0012070BD6E
:104C3000C82D01D10120FAE70020F8E710B502469F
:104C40000B461146D1F8000820F4FE60C1F80008B8
:104C5000D1F800084FF4FE6404EA03142043C1F8BD
:104C60000008002010BD02461346D3F80008084390
:104C7000C3F800080020704730B503461446022CE4
:104C800049D12D48814204D32C48814201D20F22C0
:104C900045E02A48814204D32948814201D20E22AC
:104CA0003DE02748814204D32648814201D20D22AB
:104CB00035E02448814204D32348814201D20C22AA
:104CC0002DE02148814204D32048814201D20B22A9
:104CD00025E01E48814204D31D48814201D20A22A8
:104CE0001DE01B48814204D31A48814201D20922A7
:104CF00015E01848814204D31748814201D20822A6
:104D00000DE01548814204D31448814201D20722A4
:104D100005E0062203E00CB9092200E00922D86868
:104D200020F47050D860D8684FF4705505EA822599
:104D30002843D860002030BDC0ACD800C0E1E400FA
:104D40000024F40080730601A0491A01002D3101EE
:104D500040A44C0100366E0120ABA6010048E801DA
:104D60002DE9F04304460D461E46DDF81CC0A04662
:104D70002946BCF1000F12D1F01C870800230CE07B
:104D8000D1F8009008F5805000EB0230C0F8009098
:104D9000491C491C491C491C5B1CBB42F0D3002028
:104DA000BDE8F08300BFFEE702480068C0F30220C0
:104DB000704700000CED00E010B5002804DB0A0786
:104DC000130E054A135406E00A07140E034A00F0B6
:104DD0000F031B1FD45410BD00E400E018ED00E0E9
:104DE00002E008C8121F08C1002AFAD170477047B4
:104DF000002001E001C1121F002AFBD17047000012
:104E000070B588B004460D46164602940020039003
:104E100005900490069601AB2A4602A90348FBF7C9
:104E200054FB08B100BFFEE708B070BD940100203C
:104E300010B5002821D0114B0022001F196803E093
:104E4000814203D80A4649680029F9D152B1136852
:104E5000841A9C4204D1006818441060104602E095
:104E6000506000E0186039B102680B1A934203D118
:104E70000B681A4402604968416010BD8C01002033
:104E8000FCF7C6F8FDF719FEFDF7D0FBFDF7AEFC09
:104E9000FDF7AAFB00224FF480713548FCF7A0F81B
:104EA000012210213248FCF79BF8002220213048D3
:104EB000FCF796F8002240212D48FCF791F80122DA
:104EC00080212B48FCF78CF8002210212948FCF7A0
:104ED00087F8012220212748FCF782F80122114699
:104EE0002548FCF77DF8002202212348FCF778F8DA
:104EF0000122D1022148FCF773F800224FF48051BF
:104F00001E48FCF76DF8012251031C48FCF768F8B5
:104F1000012291031948FCF763F80122D1031748D5
:104F2000FCF75EF8FBF7F4F902211548FBF7B8FA35
:104F30001348FBF70CFF08B100BFFEE717E00122A2
:104F400011461048FCF74CF84FF4FA70FBF736FFA7
:104F5000002201210B48FCF743F84FF4FA70FBF7ED
:104F60002DFF00F04BF8062107A0FBF75FFAE6E7FC
:104F70000000024000080240000402400014024009
:104F800094010020001802406675636B0D0A000052
:104F9000F0B50B30154D20F007010024144A0FE046
:104FA00003688B420BD38B4205D95E1A43184768BE
:104FB000C3E9006700E04368136002C004E0021D1B
:104FC00010680028ECD12046002802D1286808B1DA
:104FD0000020F0BD064A07481060074A121A22F066
:104FE0000702C0E9002401202860D7E790010020D3
:104FF0008C010020641B0020603B00201CB51220A7
:105000008DF8000034208DF801000822694640F236
:105010002510FFF7F5FE1CBD000000000000000099
:10502000010203040607080900000000010203044E
:10503000505000080000002094010000A402000865
:105040001851000894010020CC3D0000F04D0008EC
:1050500041321042011324F41339301B0881041A21
:1050600091041ABD041AFD041A05041A4904131206
:1050700001140202021640830440571D020102037C
:1050800035071B040309041A032AC25A120813ED38
:10509000031B08E9041A49041B11041131130A0601
:1050A00032022A402213952C1408D52B4C08B72D18
:1050B0001C1A23101A25101AA104C11A75181A6592
:1050C000041A85041A55041C0902438B111DC032B1
:1050D0000904C51A020B130524161001052401103A
:1050E00009010424020205240617010705820308AA
:1050F0001C100904C1320A1D070501027B2C07059B
:105100008107110937442A40072A8107112B090713
:08511000440A3B044481000045
:040000050800018569
:00000001FF
