:020000040800F2
:1000000038040020990100089118000883160008A0
:100010008D180008A50200080B1900080000000058
:100020000000000000000000000000009718000819
:10003000F102000800000000951800089918000857
:10004000B3010008B3010008B3010008B3010008C0
:10005000B3010008B3010008B3010008B3010008B0
:10006000B3010008B3010008B3010008B3010008A0
:10007000B3010008B3010008B3010008B301000890
:10008000B3010008B3010008B3010008B301000880
:10009000A9020008B3010008B3010008B301000879
:1000A000B3010008B3010008B3010008B301000860
:1000B000B3010008B3010008B3010008B301000850
:1000C000B3010008B3010008B3010008B301000840
:1000D000B3010008B3010008B3010008B301000830
:1000E000B3010008B3010008B3010008B301000820
:1000F000B3010008B3010008B3010008B301000810
:10010000B3010008B3010008B3010008B3010008FF
:10011000B3010008B3010008B3010008B3010008EF
:10012000B3010008B3010008B3010008B3010008DF
:10013000B3010008B3010008B3010008B3010008CF
:10014000B3010008B3010008B3010008B3010008BF
:10015000B3010008B3010008B3010008B3010008AF
:10016000B3010008B3010008B3010008B30100089F
:10017000B3010008B3010008B3010008000000004B
:10018000B3010008DFF80CD000F07AF8004800470F
:10019000991900083804002006488047064800479F
:1001A000FEE7FEE7FEE7FEE7FEE7FEE7FEE7FEE727
:1001B000FEE7FEE709190008850100082DE9F05F58
:1001C0000546002092469B468846064681464024C6
:1001D0001BE0284641464746224600F041F8534678
:1001E0005A46C01A914110D311461846224600F0D3
:1001F00028F82D1A67EB01084F46224601200021FE
:1002000000F01FF817EB00094E41201EA4F1010475
:10021000DFDC484631462A464346BDE8F09FD2B26D
:1002200001E000F8012B491EFBD270470022F6E7DF
:1002300010B513460A4604461946FFF7F0FF20465C
:1002400010BD202A04DB203A00FA02F1002070479A
:100250009140C2F1200320FA03F319439040704704
:10026000202A04DB203A21FA02F00021704721FA0B
:1002700002F3D040C2F12002914008431946704772
:10028000064C074D06E0E06840F0010394E80700E3
:1002900098471034AC42F6D3FFF778FFC81A00082D
:1002A000E81A000800BFFEE710B5024800F03BFA6C
:1002B00010BD00001000002000B58BB0002006909B
:1002C0000790012008900020019002900390049074
:1002D00005900120099000200A9001A9034800F030
:1002E000C5F808B100F005F80BB000BD1000002003
:1002F000704772B600BFFEE710B5024692F8203094
:10030000012B01D0022B06D1106840690843146804
:100310006061002010BD506A40F4802050620120CE
:10032000F8E7F0B504460D461E4694F820702068A4
:100330008368A86800B900E000BF012F01D0022F38
:100340007DD103F0806030B903F0006018B903F08C
:10035000805000287ED0C3F30161012088403060C6
:10036000A86860B9B5F800C0E86840EA4C5C20684D
:1003700000F5C07000EB0110C0F800C00FE0D5E937
:1003800001C040EACC00D5F80CC040EA0C00D4F81B
:1003900000C00CF5C07C0CEB011CCCF80000D5F8BB
:1003A00010C0206800F5C07000EB0110C0F804C058
:1003B000287D01280ED1206800F5C07000EB0110E7
:1003C000406840F4807C206800F5C07000EB0110AC
:1003D000C0F804C0D079000692F806C040EA0C408C
:1003E00092F805C040EA0C2092F804C040EA0C00E4
:1003F000D4F800C00CF5C07C0CEB011CCCF80C0050
:10040000D078000692F802C040EA0C4092F801C091
:1004100040EA0C2092F800C040EA0C00D4F800C07A
:100420000CF5C07C0CEB011CCCF80800206800F532
:10043000C07000EB0110006840F0010C01E00FE01B
:1004400008E0206800F5C07000EB0110C0F800C0A3
:100450000020F0BD606A40F4001060620120F8E7FF
:10046000606A40F4802060620120F2E7F0B5044643
:100470000A46216894F82050012D01D0022D7ED12A
:10048000424901F50071086840F001000860086801
:1004900020F47C5008600868566A40EA062008602C
:1004A000107D00F01F06012000FA06F3C86998438A
:1004B000C861A1F50071D069C8B9D1F80C029843A0
:1004C000C1F80C02908880B2968940EA064601F590
:1004D0001070576940F83760108880B2168940EA7A
:1004E000064601F51070576900EBC7004660D069F9
:1004F000012819D1D1F80C021843C1F80C029088D8
:1005000080B2168840EA064601F51070576940F837
:100510003760908980B2168940EA064601F510706E
:10052000576900EBC7004660906928B9D1F804020A
:100530009843C1F8040204E0D1F804021843C1F85A
:100540000402106928B9D1F814029843C1F81402C2
:1005500004E0D1F814021843C1F81402106A01280B
:1005600004D1D1F81C021843C1F81C02D1F80002D2
:1005700020F00100C1F800020020F0BDFFE7606A32
:1005800040F4802060620120F7E700000064004032
:10059000704770B5044694F82050012D01D0022D0B
:1005A0007DD151B92068C06800F0030080B9606A4D
:1005B00040F400106062012070BD2068006900F006
:1005C000030028B9606A40F4001060620120F3E77C
:1005D000206800F5D87000EB0110006800F00400FE
:1005E0009060906840B9206800F5D87000EB011069
:1005F0000068400D106007E0206800F5D87000EB3F
:1006000001100068C0085060206800F5D87000EB49
:100610000110006800F00200D060206800F5D8707A
:1006200000EB0110406800F00F00082802D30820FA
:10063000106108E0206800F5D87000EB01104068F8
:1006400000F00F001061206800F5D87000EB011079
:10065000406800F47F40000A9061206800F5D8707F
:1006600000EB01104068000C5061206800F5D87064
:1006700000EB011080681870206800F5D87000EB5E
:100680000110806800F47F40000A5870206800F56F
:10069000D87000EB0110806800F47F0000E03CE0BF
:1006A000000C9870206800F5D87000EB011080688D
:1006B000000ED870206800F5D87000EB0110C068FB
:1006C0001871206800F5D87000EB0110C06800F4C4
:1006D0007F40000A5871206800F5D87000EB0110C7
:1006E000C06800F47F00000C9871206800F5D87095
:1006F00000EB0110C068000ED87131B92068C068E5
:1007000040F020002668F06005E02068006940F0B5
:1007100020002668306100204EE7606A40F48020A7
:100720006062012048E72DE9F05F0446002520685B
:1007300046692068D0F80490206887682068D0F85F
:100740000CA02068D0F810B02068D0F8188006F00F
:100750000100002855D007F00100C0B10120216838
:10076000886007F0020018B1204600F04CFA0EE055
:1007700007F0040010B145F4006508E007F0080038
:1007800010B145F4805502E0204600F03BFA07F432
:100790008070C8B14FF480702168886007F40070E1
:1007A00018B1204600F031FA0EE007F4806010B175
:1007B00045F4005508E007F4006010B145F48045A9
:1007C00002E0204600F020FA07F48030C8B14FF470
:1007D00080302168886007F4003018B1204600F0AE
:1007E00016FA0EE007F4802010B145F4004508E049
:1007F00007F4002010B145F4803502E0204600F0F7
:1008000005FA06F0080038B10AF0100020B145F4EE
:10081000007510202168C86006F0040040B10AF09D
:10082000080028B108202168C860204600F0A8F917
:1008300006F0020038B12068C06800F0030010B173
:10084000204600F09FF906F0400038B10BF0100090
:1008500020B145F4806510202168086106F0200071
:1008600040B10BF0080028B108202168086120463B
:1008700000F096F906F0100038B12068006900F029
:10088000030010B1204600F08CF906F4003040B1AE
:1008900009F0100028B1102021684860204600F0BF
:1008A00081F906F4803040B109F0080028B1082031
:1008B00021684860204600F0ABF906F4004088B398
:1008C00009F0040078B306F4807020B108F001004C
:1008D00008B145F0010506F4007020B108F00200EF
:1008E00008B145F0020506F4806020B108F004006C
:1008F00008B145F0040506F40060A0B108F07000EE
:1009000088B108F07000402817D006DC10280BD002
:1009100020280CD0302819D10CE0502810D06028A5
:1009200014D110E01DE019E045F008050FE045F096
:1009300010050CE045F0200509E045F0400506E013
:1009400045F0800503E045F4807500E000BF00BF7E
:100950002068806920F07000216888610420216887
:1009600048602DB1606A284360622046FFF710FEA0
:10097000BDE8F09F70B504460CB9012070BD94F835
:10098000200010B9204600F0AFF82068006840F061
:1009900001002168086000F055FA05460DE000F0FE
:1009A00051FA401B0A2808D9606A40F4003060629E
:1009B000052084F820000120E0E72068406800F06E
:1009C00001000028EBD02068006820F002002168B8
:1009D000086000F037FA05460DE000F033FA401BDE
:1009E0000A2808D9606A40F400306062052084F863
:1009F00020000120C2E72068406800F002000028C3
:100A0000EBD1207E012806D12068006840F08000EC
:100A10002168086005E02068006820F080002168F7
:100A20000860607E012806D12068006840F0400020
:100A30002168086005E02068006820F04000216817
:100A40000860A07E012806D12068006840F02000E0
:100A50002168086005E02068006820F02000216817
:100A60000860E07E012806D12068006820F01000B0
:100A70002168086005E02068006840F010002168E7
:100A80000860207F012806D12068006840F0080037
:100A90002168086005E02068006820F008002168EF
:100AA0000860607F012806D12068006840F00400DB
:100AB0002168086005E02068006820F004002168D3
:100AC0000860D4E9020108432169084361690843C9
:100AD0006168491E08432168C861002060620120E6
:100AE00084F82000002049E710B586B004461421A0
:100AF00001A8FFF79BFB1F492068884237D100BF40
:100B0000002000901C48006840F000701A490860FE
:100B10000846006800F00070009000BF00BF00BFF2
:100B20000020009014481038006840F00800124976
:100B3000103908600846006800F00800009000BF07
:100B400000BF0320019002200290002003900320A8
:100B500004900920059001A9084800F06FF80022D0
:100B60001146142000F0F8F9142000F0E5F906B061
:100B700010BD00000064004040380240000C0240FC
:100B80007047000030B589B0054600246B4602AAC4
:100B900000210248FFF7FDFC09B030BD1000002025
:100BA00070477047704770B5044694F820000128DC
:100BB00022D1022084F820002068006820F0010083
:100BC0002168086000F03EF905460DE000F03AF9B2
:100BD000401B0A2808D9606A40F400306062052092
:100BE00084F82000012070BD2068406800F00100FA
:100BF0000028EBD16062F6E7606A40F40020606292
:100C00000120F0E7704770477047704770477047A2
:100C10007047000070B5044600F014F906462546FA
:100C2000681C10B104480078054400BF00F00AF9C0
:100C3000801BA842FAD370BD0800002078B5024698
:100C40000B460021DAE001268E401D6805EA060405
:100C5000002C74D01D7905F00305012D04D01D79F9
:100C600005F00305022D13D190684E000325B54011
:100C7000A8434E00DD68B5402843906050680125C8
:100C80008D40A8431D79C5F300158D402843506061
:100C90001D7905F00305032D09D0D0684E0003250A
:100CA000B540A8434E009D68B5402843D0601D79EB
:100CB00005F00305022D13D1CE0802F1200555F8E9
:100CC00026004D07EE0E0F25B540A8434E07F60E41
:100CD0001D69B5402843CE0802F1200545F82600DD
:100CE00010684E000325B540A8431D7905F00305A3
:100CF0004E00B540284310605D6805F44035002D76
:100D00007BD000BF002500953F4D2D6845F4804500
:100D10003D4E356035462D6805F48045009500BF91
:100D200000BF3A4D8E0855F826008D072E0F0F256F
:100D3000B540A843364DAA4202D1002529E05CE027
:100D4000344DAA4201D1012523E0334DAA4201D1FD
:100D500002251EE0314DAA4201D1032519E0304D94
:100D6000AA4201D1042514E02E4DAA4201D1052545
:100D70000FE02D4DAA4201D106250AE02B4DAA42D3
:100D800001D1072505E02A4DAA4201D1082500E03E
:100D900009258E07360FB54028431C4D8E0845F8AF
:100DA0002600244D2868A0435D6805F4801505B130
:100DB0002043204D28602D1D2868A0435D6805F460
:100DC000001505B120431B4D2D1D2860194D2D1F09
:100DD0002868A0435D6805F4003505B12043154D32
:100DE0002D1F28602D1F2868A0435D6805F48035FD
:100DF00005B120430F4D083D2860491C1D68CD40BA
:100E0000002D7FF420AF78BD4438024008380140FF
:100E1000000002400004024000080240000C0240B2
:100E2000001002400014024000180240001C024062
:100E300000200240083C01400AB1816101E00B043E
:100E4000836170470148006870470000000000207F
:100E5000034800680349097808440149086070475D
:100E6000000000200800002010B50D48006840F484
:100E700000700B4908600846006840F48060086014
:100E80000846006840F480700860032000F0A2F873
:100E90000F2000F007F800F02BF8002010BD000034
:100EA000003C024070B504460E4800784FF47A7159
:100EB000B1FBF0F00C490968B1FBF0F5284600F0F1
:100EC000C6FB08B1012070BD102C07D200222146BC
:100ED000501E00F041F80548046001E00120F2E7EF
:100EE0000020F0E7080000200C0000200400002093
:100EF00008B500BF002000900E48006840F4804014
:100F00000C4908600846006800F48040009000BF6B
:100F100000BF00BF00200090081F006840F0805014
:100F2000091F08600846006800F08050009000BF6C
:100F300000BF08BD4438024001460846002809DBCE
:100F400000F01F0301229A4043099B0003F1E023B4
:100F5000C3F8002100BF70472DE9F05F80460D46C1
:100F60001646002700F0D4FC074639462A46334689
:100F700001F00700C0F1070ABAF1040F02D94FF0DF
:100F8000040A01E0C0F1070AD14600F1040ABAF1EF
:100F9000070F02D24FF0000A01E0A0F1030AD44685
:100FA0004FF0010A0AFA09FAAAF1010A0AEA020A4A
:100FB0000AFA0CFA4FF0010B0BFA0CFBABF1010B28
:100FC0000BEA030B4AEA0B042146404600F0A8FC5A
:100FD000BDE8F09F00BF00F00702064B19684FF60E
:100FE000FF031940044B0B4343EA0221014B1960F4
:100FF00000BF70470CED00E00000FA0570B5044634
:101000000D460CB9012070BD5A48006800F00F0071
:10101000A84209D257490D700846006800F00F0039
:10102000A84201D00120EEE7207800F0020002285B
:101030001DD1207800F00400042805D14E48006836
:1010400040F4E0504C490860207800F0080008287F
:1010500005D14948006840F4604047490860464867
:10106000006820F0F000A168084343490860207838
:1010700000F0010090B36068012807D13E480838AD
:101080000068C0F34040A0B90120BCE760680228B6
:1010900007D1394808380068C0F3406048B90120DA
:1010A000B1E7354808380068C0F3400008B90120AE
:1010B000A9E73148006820F00300616808432E4921
:1010C0000860FFF7BFFE064609E0FFF7BBFE801B86
:1010D00041F28831884202D9032094E707E026488C
:1010E000006800F00C006168B0EB810FEDD1214881
:1010F000006800F00F00A84209D91E490D7008468B
:10110000006800F00F00A84201D001207BE72078A2
:1011100000F00400042807D11748006820F4E050CC
:10112000E168084314490860207800F008000828A6
:1011300008D11148006820F46040216940EAC100EC
:101140000D49086000F020F80B49096801F0F00132
:10115000F02292FAA2F2B2FA82F2D140074A515C2E
:10116000C8400749086007480068FFF79BFE002059
:1011700049E70000003C024008380240B01A00086D
:101180000C000020040000202DE9F0470024002579
:101190000026A1462548006800F00C0020B1042874
:1011A00005D008283AD105E0DFF8849039E0DFF86F
:1011B000849036E01D48001F006800F03F041B4883
:1011C000001F006800F4800078B11A481749091F11
:1011D0000968C1F38811A0FB017001462246002373
:1011E0003846FEF7EBFF05460EE011480F49091F90
:1011F0000968C1F38811A0FB017001462246002353
:101200003846FEF7DBFF05460848001F0068C0F3BC
:101210000140401C4600B5FBF6F902E0DFF81090F3
:1012200000BF00BF4846BDE8F08700000838024014
:101230000024F40000127A00F8B504460CB901202D
:10124000F8BD207800F00100002848D0F948006877
:1012500000F00C0004280DD0F648006800F00C00E7
:10126000082811D1F348001F006800F48000B0F591
:10127000800F09D1EF4808380068C0F3404070B3D0
:10128000606860BB0120DBE72079EA49891F0870AC
:10129000606890B1FFF7D6FD054606E0FFF7D2FD86
:1012A000401B642801D90320CAE7E24808380068D7
:1012B000C0F340400028F1D011E0FFF7C3FD054620
:1012C00006E0FFF7BFFD401B642801D90320B7E704
:1012D000D84808380068C0F340400028F1D1207891
:1012E00000F00200022869D1D248006800F00C002A
:1012F00058B1D048006800F00C00082821D1CD4832
:10130000001F006800F48000D8B9CA480838006897
:10131000C0F3400020B1E068012801D001208FE730
:10132000C4480838006820F0F800F82292FAA2F2C7
:10133000B2FA82F2216991400843BE490839086037
:101340003CE0E06828B30120BB490860FFF77AFD64
:10135000054606E0FFF776FD401B022801D9032071
:101360006EE7B44808380068C0F340000028F1D0A8
:10137000B0480838006820F0F800F82292FAA2F28B
:10138000B2FA82F2216991400843AA4908390860FB
:1013900014E00020A8490860FFF754FD054606E068
:1013A000FFF750FD401B022801D9032048E7A14860
:1013B00008380068C0F340000028F1D1207800F020
:1013C000080008282CD16069A8B101209B49086059
:1013D000FFF738FD054606E0FFF734FD401B022805
:1013E00001D903202CE793486C300068C0F340001B
:1013F0000028F1D014E0002090490860FFF722FD9A
:10140000054606E0FFF71EFD401B022801D9032018
:1014100016E788486C300068C0F340000028F1D11E
:10142000207800F00400042874D100268148383068
:10143000006800F0805090B900BF002000907D4807
:101440003830006840F080507A49383108600846EA
:10145000006800F08050009000BF00BF012678486F
:10146000006840F48070764908600846006800F41F
:101470008070A8B90846006840F480700860FFF7E3
:10148000E1FC054606E0FFF7DDFC401B022801D920
:101490000320D5E66A48006800F480700028F2D086
:1014A000207A644968310870A068A0B1FFF7CAFCCF
:1014B000054608E0FFF7C6FC401B41F28831884230
:1014C00001D90320BCE65B4868300068C0F34000E7
:1014D0000028EFD013E0FFF7B5FC054608E0FFF762
:1014E000B1FC401B41F28831884201D90320A7E6B4
:1014F000504868300068C0F340000028EFD1012E4A
:1015000007D14C483830006820F0805049493831C4
:10151000086000BFA06900284BD04648006800F072
:101520000C0008285CD0A069022843D10020424961
:101530000866FFF787FC054606E0FFF783FC401BC3
:10154000642801D903207BE63A4808380068C0F3D4
:1015500040600028F1D1D4E907010843616A40EAFC
:1015600081112C20005D41EA00610122A06AC2EBDA
:10157000500041EA00402F49091F0968314A1140D3
:1015800008432C49091F086001202B490866FFF712
:1015900059FC054606E0FFF755FC401B642801D9BD
:1015A00003204DE6234808380068C0F34060002857
:1015B000F1D04AE0002020490866FFF743FC0546C9
:1015C00006E0FFF73FFC401B642801D9032037E603
:1015D000184808380068C0F340600028F1D134E0B2
:1015E000A069012800D12BE61248001F016801F410
:1015F0008002E06982421BD101F03F02206A8242F0
:1016000016D147F6C0700840626AB0EB821F0FD156
:1016100001F440320123A06AC3EB5000B2EB004F4B
:1016200006D101F070622C20005DB2EB006F0BD090
:10163000012005E60838024000004742800E47427C
:10164000007000400080BCF000BF0020F8E570B5DD
:1016500004462546681EB0F1807F01D301200FE0CB
:10166000681E4FF0E02148610F214FF0FF3000F07D
:1016700057F900204FF0E021886107200861002021
:1016800070BD00BFFEE7000010B50E480E490860AF
:101690000520486000210C488160C1604FF4802122
:1016A00001614FF4A001416100210176417681760C
:1016B000C17601774177FFF75DF908B1FEF719FEB2
:1016C00010BD0000006400401000002000B587B08D
:1016D000142102A8FEF7AAFD00BF00200190654872
:1016E000006840F00400634908600846006800F0A4
:1016F0000400019000BF00BF00BF00200190084619
:10170000006840F0800008600846006800F0800033
:10171000019000BF00BF00BF002001900846006894
:1017200040F0010008600846006800F001000190E8
:1017300000BF00BF00BF002001900846006840F0D5
:10174000020008600846006800F00200019000BF37
:1017500000BF00BF002001900846006840F0200054
:1017600008600846006800F02000019000BF00BF3C
:1017700000BF002001900846006840F0400008606B
:101780000846006800F04000019000BF00BF00BFA5
:10179000002001900846006840F0080008600846F4
:1017A000006800F00800019000BF00BF01229021F6
:1017B0003148FFF741FB00224FF4B0712E48FFF78C
:1017C0003BFB002230212D48FFF736FB002203218E
:1017D0002B48FFF731FB0122D1022A48FFF72CFBEF
:1017E00000224FF470412748FFF726FB01221146E3
:1017F0002548FFF721FB4FF4F87002900120039079
:10180000002004900320059002A91B48FFF716FA58
:1018100030200290012003900020049003200590C6
:1018200002A91648FFF70AFA03200290012003904C
:10183000002004900320059002A91148FFF7FEF94B
:101840004FF4784002900120039000200490032080
:10185000059002A90B48FFF7F1F9012002900390CF
:10186000002004900320059002A90748FFF7E6F93D
:1018700007B000BD303802400000024000080240BE
:1018800000040240001402400018024000BFFEE7BE
:1018900000BFFEE77047704710B5FFF7D9FA10BDDB
:1018A00000B591B0302105A8FEF7C0FC14216846B0
:1018B000FEF7BCFC01200590069002200B9041052C
:1018C0000C9108210D91F0210E9102210F9104211C
:1018D000109105A8FFF7B0FC08B1FEF70AFD0F2034
:1018E000009002200190002002904FF4A05003903D
:1018F0004FF48050049003216846FFF77FFB08B146
:10190000FEF7F7FC11B000BD704700BFFEE7000016
:1019100002480068C0F30220704700000CED00E0B0
:1019200010B5002804DB0A07130E054A135406E01D
:101930000A07140E034A00F00F031B1FD45410BDF6
:1019400000E400E018ED00E002E008C8121F08C142
:10195000002AFAD170477047002001E001C1121F30
:10196000002AFBD17047000070B588B004460D46D0
:10197000164602940020039005900490069601AB51
:101980002A4602A90348FEF7CCFC08B100BFFEE7D7
:1019900008B070BD10000020FFF766FAFFF780FF67
:1019A000FFF794FEFFF770FE00224FF4807133487A
:1019B000FFF742FA012210213048FFF73DFA0022DA
:1019C00020212E48FFF738FA002240212B48FFF74C
:1019D00033FA012280212948FFF72EFA0022102134
:1019E0002748FFF729FA012220212548FFF724FA8A
:1019F000012211462348FFF71FFA00220221214845
:101A0000FFF71AFA0122D1021F48FFF715FA002248
:101A10004FF480511C48FFF70FFA012251031A4876
:101A2000FFF70AFA012291031748FFF705FA01228E
:101A3000D1031548FFF700FAFEF73EFC02211348D8
:101A4000FEF75AFC1148FFF7AEF808B100BFFEE7F9
:101A500013E0012211460E48FFF7EEF94FF4FA7039
:101A6000FFF7D8F8002201210948FFF7E5F94FF404
:101A7000FA70FFF7CFF800F00DF8EAE70000024037
:101A80000008024000040240001402401000002040
:101A9000001802401CB512208DF8000034208DF88B
:101AA00001000822694640F22510FFF75DFF1CBDCA
:101AB00000000000000000000102030406070809FE
:101AC0000000000001020304E81A000800000020E2
:101AD0001000000048190008F81A00081000002043
:101AE0002804000058190008000000001000000041
:081AF000010000000024F400D5
:040000050800018569
:00000001FF
